{
  "_format": "hh-sol-artifact-1",
  "contractName": "AdAuction",
  "sourceName": "contracts/AdAuction.sol",
  "abi": [
    {
      "inputs": [
        {
          "internalType": "uint256",
          "name": "_startAuctionTime",
          "type": "uint256"
        },
        {
          "internalType": "uint256",
          "name": "_endAuctionTime",
          "type": "uint256"
        },
        {
          "internalType": "uint256",
          "name": "_minimumBlockBid",
          "type": "uint256"
        },
        {
          "internalType": "uint256",
          "name": "_chargeInterval",
          "type": "uint256"
        },
        {
          "internalType": "address",
          "name": "_priceFeedAddress",
          "type": "address"
        }
      ],
      "stateMutability": "nonpayable",
      "type": "constructor"
    },
    {
      "inputs": [],
      "name": "AdAuction__AdAuctionBalanceIsTooLow",
      "type": "error"
    },
    {
      "inputs": [],
      "name": "AdAuction__AuctionHasntStartedYet",
      "type": "error"
    },
    {
      "inputs": [],
      "name": "AdAuction__AuctionIsNotOverYet",
      "type": "error"
    },
    {
      "inputs": [],
      "name": "AdAuction__AuctionIsOver",
      "type": "error"
    },
    {
      "inputs": [],
      "name": "AdAuction__BidIsLowerThanMinimum",
      "type": "error"
    },
    {
      "inputs": [],
      "name": "AdAuction__BidWithdrawalFailed",
      "type": "error"
    },
    {
      "inputs": [],
      "name": "AdAuction__BidderAlreadyWithdrew",
      "type": "error"
    },
    {
      "inputs": [],
      "name": "AdAuction__HigherBidIsAvailable",
      "type": "error"
    },
    {
      "inputs": [],
      "name": "AdAuction__HighestBidderCantWithdraw",
      "type": "error"
    },
    {
      "inputs": [],
      "name": "AdAuction__InvalidAuctionPeriod",
      "type": "error"
    },
    {
      "inputs": [],
      "name": "AdAuction__InvalidMinimumBidRequirement",
      "type": "error"
    },
    {
      "inputs": [],
      "name": "AdAuction__NoFundsToCharge",
      "type": "error"
    },
    {
      "inputs": [],
      "name": "AdAuction__NoSuchPayer",
      "type": "error"
    },
    {
      "inputs": [],
      "name": "AdAuction__NoWinnerInAuction",
      "type": "error"
    },
    {
      "inputs": [],
      "name": "AdAuction__NotOwner",
      "type": "error"
    },
    {
      "inputs": [],
      "name": "AdAuction__OwnerWithdrawalFailed",
      "type": "error"
    },
    {
      "inputs": [],
      "name": "AdAuction__PaidAmountIsLowerThanBid",
      "type": "error"
    },
    {
      "inputs": [
        {
          "internalType": "uint256",
          "name": "currentBalance",
          "type": "uint256"
        },
        {
          "internalType": "address",
          "name": "highestBidder",
          "type": "address"
        }
      ],
      "name": "AdAuction__UpkeepNotNeeded",
      "type": "error"
    },
    {
      "anonymous": false,
      "inputs": [
        {
          "indexed": true,
          "internalType": "address",
          "name": "payer",
          "type": "address"
        },
        {
          "indexed": true,
          "internalType": "uint256",
          "name": "ethAmount",
          "type": "uint256"
        }
      ],
      "name": "BalanceWithdrawn",
      "type": "event"
    },
    {
      "anonymous": false,
      "inputs": [
        {
          "indexed": true,
          "internalType": "address",
          "name": "payer",
          "type": "address"
        },
        {
          "indexed": true,
          "internalType": "uint256",
          "name": "ethAmount",
          "type": "uint256"
        }
      ],
      "name": "BidWithdrawn",
      "type": "event"
    },
    {
      "anonymous": false,
      "inputs": [
        {
          "indexed": true,
          "internalType": "address",
          "name": "payer",
          "type": "address"
        },
        {
          "indexed": true,
          "internalType": "uint256",
          "name": "blockBid",
          "type": "uint256"
        },
        {
          "indexed": true,
          "internalType": "uint256",
          "name": "ethBalance",
          "type": "uint256"
        },
        {
          "indexed": false,
          "internalType": "uint256",
          "name": "ethPaid",
          "type": "uint256"
        },
        {
          "indexed": false,
          "internalType": "uint256",
          "name": "timeLeft",
          "type": "uint256"
        }
      ],
      "name": "OnBid",
      "type": "event"
    },
    {
      "anonymous": false,
      "inputs": [
        {
          "indexed": true,
          "internalType": "address",
          "name": "payer",
          "type": "address"
        },
        {
          "indexed": true,
          "internalType": "uint256",
          "name": "ethBalance",
          "type": "uint256"
        },
        {
          "indexed": false,
          "internalType": "uint256",
          "name": "ethPaid",
          "type": "uint256"
        },
        {
          "indexed": false,
          "internalType": "uint256",
          "name": "timeLeft",
          "type": "uint256"
        }
      ],
      "name": "OnTopUp",
      "type": "event"
    },
    {
      "stateMutability": "payable",
      "type": "fallback"
    },
    {
      "inputs": [
        {
          "internalType": "address",
          "name": "",
          "type": "address"
        }
      ],
      "name": "addressToPayer",
      "outputs": [
        {
          "internalType": "uint256",
          "name": "ethBalance",
          "type": "uint256"
        },
        {
          "internalType": "uint256",
          "name": "ethUsed",
          "type": "uint256"
        },
        {
          "internalType": "uint256",
          "name": "blockBid",
          "type": "uint256"
        },
        {
          "internalType": "uint256",
          "name": "timeLeft",
          "type": "uint256"
        },
        {
          "internalType": "string",
          "name": "name",
          "type": "string"
        },
        {
          "internalType": "string",
          "name": "imageUrl",
          "type": "string"
        },
        {
          "internalType": "string",
          "name": "text",
          "type": "string"
        },
        {
          "internalType": "bool",
          "name": "withdrew",
          "type": "bool"
        }
      ],
      "stateMutability": "view",
      "type": "function"
    },
    {
      "inputs": [
        {
          "internalType": "string",
          "name": "_name",
          "type": "string"
        },
        {
          "internalType": "string",
          "name": "_imageUrl",
          "type": "string"
        },
        {
          "internalType": "string",
          "name": "_text",
          "type": "string"
        },
        {
          "internalType": "uint256",
          "name": "_blockBid",
          "type": "uint256"
        }
      ],
      "name": "bidOnAd",
      "outputs": [],
      "stateMutability": "payable",
      "type": "function"
    },
    {
      "inputs": [],
      "name": "chargeForAd",
      "outputs": [],
      "stateMutability": "nonpayable",
      "type": "function"
    },
    {
      "inputs": [],
      "name": "chargeInterval",
      "outputs": [
        {
          "internalType": "uint256",
          "name": "",
          "type": "uint256"
        }
      ],
      "stateMutability": "view",
      "type": "function"
    },
    {
      "inputs": [
        {
          "internalType": "bytes",
          "name": "",
          "type": "bytes"
        }
      ],
      "name": "checkUpkeep",
      "outputs": [
        {
          "internalType": "bool",
          "name": "upkeepNeeded",
          "type": "bool"
        },
        {
          "internalType": "bytes",
          "name": "",
          "type": "bytes"
        }
      ],
      "stateMutability": "view",
      "type": "function"
    },
    {
      "inputs": [],
      "name": "endAuctionTime",
      "outputs": [
        {
          "internalType": "uint256",
          "name": "",
          "type": "uint256"
        }
      ],
      "stateMutability": "view",
      "type": "function"
    },
    {
      "inputs": [],
      "name": "getCurrentMinimumBid",
      "outputs": [
        {
          "internalType": "uint256",
          "name": "",
          "type": "uint256"
        }
      ],
      "stateMutability": "view",
      "type": "function"
    },
    {
      "inputs": [],
      "name": "highestBidderAddr",
      "outputs": [
        {
          "internalType": "address",
          "name": "",
          "type": "address"
        }
      ],
      "stateMutability": "view",
      "type": "function"
    },
    {
      "inputs": [],
      "name": "minimumBlockBid",
      "outputs": [
        {
          "internalType": "uint256",
          "name": "",
          "type": "uint256"
        }
      ],
      "stateMutability": "view",
      "type": "function"
    },
    {
      "inputs": [],
      "name": "owner",
      "outputs": [
        {
          "internalType": "address",
          "name": "",
          "type": "address"
        }
      ],
      "stateMutability": "view",
      "type": "function"
    },
    {
      "inputs": [],
      "name": "ownerBalanceAvailable",
      "outputs": [
        {
          "internalType": "uint256",
          "name": "",
          "type": "uint256"
        }
      ],
      "stateMutability": "view",
      "type": "function"
    },
    {
      "inputs": [
        {
          "internalType": "bytes",
          "name": "",
          "type": "bytes"
        }
      ],
      "name": "performUpkeep",
      "outputs": [],
      "stateMutability": "nonpayable",
      "type": "function"
    },
    {
      "inputs": [],
      "name": "priceFeed",
      "outputs": [
        {
          "internalType": "contract AggregatorV3Interface",
          "name": "",
          "type": "address"
        }
      ],
      "stateMutability": "view",
      "type": "function"
    },
    {
      "inputs": [],
      "name": "startAuctionTime",
      "outputs": [
        {
          "internalType": "uint256",
          "name": "",
          "type": "uint256"
        }
      ],
      "stateMutability": "view",
      "type": "function"
    },
    {
      "inputs": [],
      "name": "topUp",
      "outputs": [],
      "stateMutability": "payable",
      "type": "function"
    },
    {
      "inputs": [
        {
          "internalType": "address",
          "name": "receiver",
          "type": "address"
        }
      ],
      "name": "withdraw",
      "outputs": [],
      "stateMutability": "nonpayable",
      "type": "function"
    },
    {
      "inputs": [
        {
          "internalType": "address",
          "name": "receiver",
          "type": "address"
        }
      ],
      "name": "withdrawBid",
      "outputs": [],
      "stateMutability": "nonpayable",
      "type": "function"
    },
    {
      "stateMutability": "payable",
      "type": "receive"
    }
  ],
  "bytecode": "0x6101206040523480156200001257600080fd5b5060405162002a5f38038062002a5f8339818101604052810190620000389190620001bf565b3373ffffffffffffffffffffffffffffffffffffffff1660808173ffffffffffffffffffffffffffffffffffffffff1681525050848411620000a6576040517feb0e27df00000000000000000000000000000000000000000000000000000000815260040160405180910390fd5b8460a081815250508360c081815250508260e081815250508161010081815250508360008190555080600460006101000a81548173ffffffffffffffffffffffffffffffffffffffff021916908373ffffffffffffffffffffffffffffffffffffffff160217905550505050505062000247565b600080fd5b6000819050919050565b62000134816200011f565b81146200014057600080fd5b50565b600081519050620001548162000129565b92915050565b600073ffffffffffffffffffffffffffffffffffffffff82169050919050565b600062000187826200015a565b9050919050565b62000199816200017a565b8114620001a557600080fd5b50565b600081519050620001b9816200018e565b92915050565b600080600080600060a08688031215620001de57620001dd6200011a565b5b6000620001ee8882890162000143565b9550506020620002018882890162000143565b9450506040620002148882890162000143565b9350506060620002278882890162000143565b92505060806200023a88828901620001a8565b9150509295509295909350565b60805160a05160c05160e0516101005161277f620002e06000396000818161079e01526112e10152600081816107c2015281816113e2015261152901526000818161080c01528181610a6d01528181610fe30152818161122d015281816112b4015281816114cf015261194a0152600081816103da015281816109580152611475015260008181610f5e0152611367015261277f6000f3fe6080604052600436106101025760003560e01c806351cff8d91161009557806384cc4ad61161006457806384cc4ad6146103315780638da5cb5b1461035c578063a74a3e9f14610387578063dc29f1de146103b2578063e889b8aa146103bc57610111565b806351cff8d9146102745780635a4ed8f11461029d5780636e04ff0d146102c8578063741bef1a1461030657610111565b80632edd77e2116100d15780632edd77e2146101e0578063321e6896146101f75780634585e33b146102225780634ede36481461024b57610111565b80630472f47e1461011b5780630e1010931461015f5780631c6589ca1461018a578063250bf55c146101b557610111565b366101115761010f6103d8565b005b6101196103d8565b005b34801561012757600080fd5b50610142600480360381019061013d9190611ba4565b6105af565b604051610156989796959493929190611c95565b60405180910390f35b34801561016b57600080fd5b5061017461079c565b6040516101819190611d28565b60405180910390f35b34801561019657600080fd5b5061019f6107c0565b6040516101ac9190611d28565b60405180910390f35b3480156101c157600080fd5b506101ca6107e4565b6040516101d79190611d52565b60405180910390f35b3480156101ec57600080fd5b506101f561080a565b005b34801561020357600080fd5b5061020c610956565b6040516102199190611d28565b60405180910390f35b34801561022e57600080fd5b5061024960048036038101906102449190611dd2565b61097a565b005b34801561025757600080fd5b50610272600480360381019061026d9190611ba4565b610a6b565b005b34801561028057600080fd5b5061029b60048036038101906102969190611ba4565b610f5c565b005b3480156102a957600080fd5b506102b261122b565b6040516102bf9190611d28565b60405180910390f35b3480156102d457600080fd5b506102ef60048036038101906102ea9190611f4f565b61124f565b6040516102fd929190611fed565b60405180910390f35b34801561031257600080fd5b5061031b611339565b604051610328919061207c565b60405180910390f35b34801561033d57600080fd5b5061034661135f565b6040516103539190611d28565b60405180910390f35b34801561036857600080fd5b50610371611365565b60405161037e9190611d52565b60405180910390f35b34801561039357600080fd5b5061039c611389565b6040516103a99190611d28565b60405180910390f35b6103ba6103d8565b005b6103d660048036038101906103d19190612119565b611473565b005b7f0000000000000000000000000000000000000000000000000000000000000000421015610432576040517f2e47541d00000000000000000000000000000000000000000000000000000000815260040160405180910390fd5b6000600360003373ffffffffffffffffffffffffffffffffffffffff1673ffffffffffffffffffffffffffffffffffffffff168152602001908152602001600020905060008160020154036104b3576040517fd51023c900000000000000000000000000000000000000000000000000000000815260040160405180910390fd5b80600201543410156104f1576040517f6210988400000000000000000000000000000000000000000000000000000000815260040160405180910390fd5b348160000160008282546105059190612211565b9250508190555060008160070160006101000a81548160ff0219169083151502179055506000600c826002015483600001546105419190612274565b61054b91906122a5565b905080826003018190555081600001543373ffffffffffffffffffffffffffffffffffffffff167f44d04acb1f0db13e76381a6d3d05b543cc154f4c59654691376f767eb8959d1b34846040516105a39291906122e7565b60405180910390a35050565b60036020528060005260406000206000915090508060000154908060010154908060020154908060030154908060040180546105ea9061233f565b80601f01602080910402602001604051908101604052809291908181526020018280546106169061233f565b80156106635780601f1061063857610100808354040283529160200191610663565b820191906000526020600020905b81548152906001019060200180831161064657829003601f168201915b5050505050908060050180546106789061233f565b80601f01602080910402602001604051908101604052809291908181526020018280546106a49061233f565b80156106f15780601f106106c6576101008083540402835291602001916106f1565b820191906000526020600020905b8154815290600101906020018083116106d457829003601f168201915b5050505050908060060180546107069061233f565b80601f01602080910402602001604051908101604052809291908181526020018280546107329061233f565b801561077f5780601f106107545761010080835404028352916020019161077f565b820191906000526020600020905b81548152906001019060200180831161076257829003601f168201915b5050505050908060070160009054906101000a900460ff16905088565b7f000000000000000000000000000000000000000000000000000000000000000081565b7f000000000000000000000000000000000000000000000000000000000000000081565b600260009054906101000a900473ffffffffffffffffffffffffffffffffffffffff1681565b7f00000000000000000000000000000000000000000000000000000000000000004211610863576040517fd77ed7b400000000000000000000000000000000000000000000000000000000815260040160405180910390fd5b600073ffffffffffffffffffffffffffffffffffffffff16600260009054906101000a900473ffffffffffffffffffffffffffffffffffffffff1673ffffffffffffffffffffffffffffffffffffffff16036108eb576040517fd416f87700000000000000000000000000000000000000000000000000000000815260040160405180910390fd5b61095460036000600260009054906101000a900473ffffffffffffffffffffffffffffffffffffffff1673ffffffffffffffffffffffffffffffffffffffff1673ffffffffffffffffffffffffffffffffffffffff168152602001908152602001600020611908565b565b7f000000000000000000000000000000000000000000000000000000000000000081565b60006109946040518060200160405280600081525061124f565b509050806109fd5747600260009054906101000a900473ffffffffffffffffffffffffffffffffffffffff166040517f49fa8ead0000000000000000000000000000000000000000000000000000000081526004016109f4929190612370565b60405180910390fd5b610a6660036000600260009054906101000a900473ffffffffffffffffffffffffffffffffffffffff1673ffffffffffffffffffffffffffffffffffffffff1673ffffffffffffffffffffffffffffffffffffffff168152602001908152602001600020611908565b505050565b7f00000000000000000000000000000000000000000000000000000000000000004211610ac4576040517fd77ed7b400000000000000000000000000000000000000000000000000000000815260040160405180910390fd5b600260009054906101000a900473ffffffffffffffffffffffffffffffffffffffff1673ffffffffffffffffffffffffffffffffffffffff163373ffffffffffffffffffffffffffffffffffffffff1603610b4b576040517f6dbf3b8700000000000000000000000000000000000000000000000000000000815260040160405180910390fd5b6000600360003373ffffffffffffffffffffffffffffffffffffffff1673ffffffffffffffffffffffffffffffffffffffff1681526020019081526020016000206040518061010001604052908160008201548152602001600182015481526020016002820154815260200160038201548152602001600482018054610bd09061233f565b80601f0160208091040260200160405190810160405280929190818152602001828054610bfc9061233f565b8015610c495780601f10610c1e57610100808354040283529160200191610c49565b820191906000526020600020905b815481529060010190602001808311610c2c57829003601f168201915b50505050508152602001600582018054610c629061233f565b80601f0160208091040260200160405190810160405280929190818152602001828054610c8e9061233f565b8015610cdb5780601f10610cb057610100808354040283529160200191610cdb565b820191906000526020600020905b815481529060010190602001808311610cbe57829003601f168201915b50505050508152602001600682018054610cf49061233f565b80601f0160208091040260200160405190810160405280929190818152602001828054610d209061233f565b8015610d6d5780601f10610d4257610100808354040283529160200191610d6d565b820191906000526020600020905b815481529060010190602001808311610d5057829003601f168201915b505050505081526020016007820160009054906101000a900460ff16151515158152505090506000816040015103610dd1576040517fd51023c900000000000000000000000000000000000000000000000000000000815260040160405180910390fd5b8060e0015115610e0d576040517f1a7b962400000000000000000000000000000000000000000000000000000000815260040160405180910390fd5b6001600360003373ffffffffffffffffffffffffffffffffffffffff1673ffffffffffffffffffffffffffffffffffffffff16815260200190815260200160002060070160006101000a81548160ff02191690831515021790555060008273ffffffffffffffffffffffffffffffffffffffff168260000151604051610e92906123ca565b60006040518083038185875af1925050503d8060008114610ecf576040519150601f19603f3d011682016040523d82523d6000602084013e610ed4565b606091505b5050905080610f0f576040517f3c87b29400000000000000000000000000000000000000000000000000000000815260040160405180910390fd5b81600001518373ffffffffffffffffffffffffffffffffffffffff167f03f0427e8bcfdf5f69217150cf160ebe2dac5fa607336fd7643bfd61a901908060405160405180910390a3505050565b7f000000000000000000000000000000000000000000000000000000000000000073ffffffffffffffffffffffffffffffffffffffff163373ffffffffffffffffffffffffffffffffffffffff1614610fe1576040517fcd8ce53a00000000000000000000000000000000000000000000000000000000815260040160405180910390fd5b7f0000000000000000000000000000000000000000000000000000000000000000421161103a576040517fd77ed7b400000000000000000000000000000000000000000000000000000000815260040160405180910390fd5b600060036000600260009054906101000a900473ffffffffffffffffffffffffffffffffffffffff1673ffffffffffffffffffffffffffffffffffffffff1673ffffffffffffffffffffffffffffffffffffffff168152602001908152602001600020905060008160020154036110dd576040517fd416f87700000000000000000000000000000000000000000000000000000000815260040160405180910390fd5b6000816000015411156110f4576110f381611908565b5b600154471015611130576040517fee5c2c4d00000000000000000000000000000000000000000000000000000000815260040160405180910390fd5b60006001549050600060018190555060008373ffffffffffffffffffffffffffffffffffffffff1682604051611165906123ca565b60006040518083038185875af1925050503d80600081146111a2576040519150601f19603f3d011682016040523d82523d6000602084013e6111a7565b606091505b50509050806111e1576040517e035fb100000000000000000000000000000000000000000000000000000000815260040160405180910390fd5b818473ffffffffffffffffffffffffffffffffffffffff167fddc398b321237a8d40ac914388309c2f52a08c134e4dc4ce61e32f57cb7d80f160405160405180910390a350505050565b7f000000000000000000000000000000000000000000000000000000000000000081565b6000606060008073ffffffffffffffffffffffffffffffffffffffff16600260009054906101000a900473ffffffffffffffffffffffffffffffffffffffff1673ffffffffffffffffffffffffffffffffffffffff16141590506000804711905060007f00000000000000000000000000000000000000000000000000000000000000004211905060008115611312577f00000000000000000000000000000000000000000000000000000000000000006000544261130e91906123df565b1190505b83801561131c5750825b80156113255750815b801561132e5750805b955050505050915091565b600460009054906101000a900473ffffffffffffffffffffffffffffffffffffffff1681565b60015481565b7f000000000000000000000000000000000000000000000000000000000000000081565b60008073ffffffffffffffffffffffffffffffffffffffff16600260009054906101000a900473ffffffffffffffffffffffffffffffffffffffff1673ffffffffffffffffffffffffffffffffffffffff1603611408577f00000000000000000000000000000000000000000000000000000000000000009050611470565b60036000600260009054906101000a900473ffffffffffffffffffffffffffffffffffffffff1673ffffffffffffffffffffffffffffffffffffffff1673ffffffffffffffffffffffffffffffffffffffff1681526020019081526020016000206002015490505b90565b7f00000000000000000000000000000000000000000000000000000000000000004210156114cd576040517f2e47541d00000000000000000000000000000000000000000000000000000000815260040160405180910390fd5b7f0000000000000000000000000000000000000000000000000000000000000000421115611527576040517f34b3fb0c00000000000000000000000000000000000000000000000000000000815260040160405180910390fd5b7f0000000000000000000000000000000000000000000000000000000000000000811015611581576040517f5f4f67b100000000000000000000000000000000000000000000000000000000815260040160405180910390fd5b60036000600260009054906101000a900473ffffffffffffffffffffffffffffffffffffffff1673ffffffffffffffffffffffffffffffffffffffff1673ffffffffffffffffffffffffffffffffffffffff16815260200190815260200160002060020154811161161e576040517f99f26ece00000000000000000000000000000000000000000000000000000000815260040160405180910390fd5b80341015611658576040517f6210988400000000000000000000000000000000000000000000000000000000815260040160405180910390fd5b60008173__$9f18c594efc047d181ed768f184dc6f8e6$__63ab9dbf379091600460009054906101000a900473ffffffffffffffffffffffffffffffffffffffff166040518363ffffffff1660e01b81526004016116b7929190612431565b602060405180830381865af41580156116d4573d6000803e3d6000fd5b505050506040513d601f19601f820116820180604052508101906116f8919061246f565b90506117396040518060400160405280600a81526020017f555344206269642025690000000000000000000000000000000000000000000081525082611a6d565b6000600360003373ffffffffffffffffffffffffffffffffffffffff1673ffffffffffffffffffffffffffffffffffffffff1681526020019081526020016000209050348160000160008282546117909190612211565b9250508190555082816002018190555088888260040191826117b3929190612649565b5086868260050191826117c7929190612649565b5084848260060191826117db929190612649565b5060008160070160006101000a81548160ff02191690831515021790555033600260006101000a81548173ffffffffffffffffffffffffffffffffffffffff021916908373ffffffffffffffffffffffffffffffffffffffff16021790555061187d6040518060400160405280600e81526020017f4554482062616c616e63652025690000000000000000000000000000000000008152508260000154611a6d565b6000600c8483600001546118919190612274565b61189b91906122a5565b90508082600301819055508160000154843373ffffffffffffffffffffffffffffffffffffffff167fb5153fca4a4320eb64a3a8dd7a550415456144b358093f5bab9c8119eb4447ee34856040516118f49291906122e7565b60405180910390a450505050505050505050565b6000816000015403611946576040517f88bd6b2b00000000000000000000000000000000000000000000000000000000815260040160405180910390fd5b60007f00000000000000000000000000000000000000000000000000000000000000004261197491906123df565b9050816003015481106119d65781600001548260010160008282546119999190612211565b925050819055508160000154600160008282546119b69190612211565b925050819055506000826000018190555060008260030181905550611a62565b6000600c826119e59190612274565b905060008360020154826119f991906122a5565b9050828460030154611a0b91906123df565b8460030181905550808460000154611a2391906123df565b846000018190555080846001016000828254611a3f9190612211565b925050819055508060016000828254611a589190612211565b9250508190555050505b426000819055505050565b611b058282604051602401611a83929190612719565b6040516020818303038152906040527fb60e72cc000000000000000000000000000000000000000000000000000000007bffffffffffffffffffffffffffffffffffffffffffffffffffffffff19166020820180517bffffffffffffffffffffffffffffffffffffffffffffffffffffffff8381831617835250505050611b09565b5050565b60008151905060006a636f6e736f6c652e6c6f679050602083016000808483855afa5050505050565b6000604051905090565b600080fd5b600080fd5b600073ffffffffffffffffffffffffffffffffffffffff82169050919050565b6000611b7182611b46565b9050919050565b611b8181611b66565b8114611b8c57600080fd5b50565b600081359050611b9e81611b78565b92915050565b600060208284031215611bba57611bb9611b3c565b5b6000611bc884828501611b8f565b91505092915050565b6000819050919050565b611be481611bd1565b82525050565b600081519050919050565b600082825260208201905092915050565b60005b83811015611c24578082015181840152602081019050611c09565b60008484015250505050565b6000601f19601f8301169050919050565b6000611c4c82611bea565b611c568185611bf5565b9350611c66818560208601611c06565b611c6f81611c30565b840191505092915050565b60008115159050919050565b611c8f81611c7a565b82525050565b600061010082019050611cab600083018b611bdb565b611cb8602083018a611bdb565b611cc56040830189611bdb565b611cd26060830188611bdb565b8181036080830152611ce48187611c41565b905081810360a0830152611cf88186611c41565b905081810360c0830152611d0c8185611c41565b9050611d1b60e0830184611c86565b9998505050505050505050565b6000602082019050611d3d6000830184611bdb565b92915050565b611d4c81611b66565b82525050565b6000602082019050611d676000830184611d43565b92915050565b600080fd5b600080fd5b600080fd5b60008083601f840112611d9257611d91611d6d565b5b8235905067ffffffffffffffff811115611daf57611dae611d72565b5b602083019150836001820283011115611dcb57611dca611d77565b5b9250929050565b60008060208385031215611de957611de8611b3c565b5b600083013567ffffffffffffffff811115611e0757611e06611b41565b5b611e1385828601611d7c565b92509250509250929050565b600080fd5b7f4e487b7100000000000000000000000000000000000000000000000000000000600052604160045260246000fd5b611e5c82611c30565b810181811067ffffffffffffffff82111715611e7b57611e7a611e24565b5b80604052505050565b6000611e8e611b32565b9050611e9a8282611e53565b919050565b600067ffffffffffffffff821115611eba57611eb9611e24565b5b611ec382611c30565b9050602081019050919050565b82818337600083830152505050565b6000611ef2611eed84611e9f565b611e84565b905082815260208101848484011115611f0e57611f0d611e1f565b5b611f19848285611ed0565b509392505050565b600082601f830112611f3657611f35611d6d565b5b8135611f46848260208601611edf565b91505092915050565b600060208284031215611f6557611f64611b3c565b5b600082013567ffffffffffffffff811115611f8357611f82611b41565b5b611f8f84828501611f21565b91505092915050565b600081519050919050565b600082825260208201905092915050565b6000611fbf82611f98565b611fc98185611fa3565b9350611fd9818560208601611c06565b611fe281611c30565b840191505092915050565b60006040820190506120026000830185611c86565b81810360208301526120148184611fb4565b90509392505050565b6000819050919050565b600061204261203d61203884611b46565b61201d565b611b46565b9050919050565b600061205482612027565b9050919050565b600061206682612049565b9050919050565b6120768161205b565b82525050565b6000602082019050612091600083018461206d565b92915050565b60008083601f8401126120ad576120ac611d6d565b5b8235905067ffffffffffffffff8111156120ca576120c9611d72565b5b6020830191508360018202830111156120e6576120e5611d77565b5b9250929050565b6120f681611bd1565b811461210157600080fd5b50565b600081359050612113816120ed565b92915050565b60008060008060008060006080888a03121561213857612137611b3c565b5b600088013567ffffffffffffffff81111561215657612155611b41565b5b6121628a828b01612097565b9750975050602088013567ffffffffffffffff81111561218557612184611b41565b5b6121918a828b01612097565b9550955050604088013567ffffffffffffffff8111156121b4576121b3611b41565b5b6121c08a828b01612097565b935093505060606121d38a828b01612104565b91505092959891949750929550565b7f4e487b7100000000000000000000000000000000000000000000000000000000600052601160045260246000fd5b600061221c82611bd1565b915061222783611bd1565b925082820190508082111561223f5761223e6121e2565b5b92915050565b7f4e487b7100000000000000000000000000000000000000000000000000000000600052601260045260246000fd5b600061227f82611bd1565b915061228a83611bd1565b92508261229a57612299612245565b5b828204905092915050565b60006122b082611bd1565b91506122bb83611bd1565b92508282026122c981611bd1565b915082820484148315176122e0576122df6121e2565b5b5092915050565b60006040820190506122fc6000830185611bdb565b6123096020830184611bdb565b9392505050565b7f4e487b7100000000000000000000000000000000000000000000000000000000600052602260045260246000fd5b6000600282049050600182168061235757607f821691505b60208210810361236a57612369612310565b5b50919050565b60006040820190506123856000830185611bdb565b6123926020830184611d43565b9392505050565b600081905092915050565b50565b60006123b4600083612399565b91506123bf826123a4565b600082019050919050565b60006123d5826123a7565b9150819050919050565b60006123ea82611bd1565b91506123f583611bd1565b925082820390508181111561240d5761240c6121e2565b5b92915050565b61241c81611bd1565b82525050565b61242b8161205b565b82525050565b60006040820190506124466000830185612413565b6124536020830184612422565b9392505050565b600081519050612469816120ed565b92915050565b60006020828403121561248557612484611b3c565b5b60006124938482850161245a565b91505092915050565b600082905092915050565b60008190508160005260206000209050919050565b60006020601f8301049050919050565b600082821b905092915050565b6000600883026125097fffffffffffffffffffffffffffffffffffffffffffffffffffffffffffffffff826124cc565b61251386836124cc565b95508019841693508086168417925050509392505050565b600061254661254161253c84611bd1565b61201d565b611bd1565b9050919050565b6000819050919050565b6125608361252b565b61257461256c8261254d565b8484546124d9565b825550505050565b600090565b61258961257c565b612594818484612557565b505050565b5b818110156125b8576125ad600082612581565b60018101905061259a565b5050565b601f8211156125fd576125ce816124a7565b6125d7846124bc565b810160208510156125e6578190505b6125fa6125f2856124bc565b830182612599565b50505b505050565b600082821c905092915050565b600061262060001984600802612602565b1980831691505092915050565b6000612639838361260f565b9150826002028217905092915050565b612653838361249c565b67ffffffffffffffff81111561266c5761266b611e24565b5b612676825461233f565b6126818282856125bc565b6000601f8311600181146126b0576000841561269e578287013590505b6126a8858261262d565b865550612710565b601f1984166126be866124a7565b60005b828110156126e6578489013582556001820191506020850194506020810190506126c1565b8683101561270357848901356126ff601f89168261260f565b8355505b6001600288020188555050505b50505050505050565b600060408201905081810360008301526127338185611c41565b90506127426020830184611bdb565b939250505056fea2646970667358221220ca5ba6b13a57408ab06b40ca8067f489f7d5d29e4af7e70092010b5e7cc72cf464736f6c63430008110033",
  "linkReferences": {
    "contracts/PriceOracle.sol": {
      "PriceOracle": [
        {
          "length": 20,
          "start": 6461
        }
      ]
    }
  },
  "deployedLinkReferences": {
    "contracts/PriceOracle.sol": {
      "PriceOracle": [
        {
          "length": 20,
          "start": 5725
        }
      ]
    }
  }
}